{
  "contractName": "TokenSales",
  "abi": [
    {
      "inputs": [
        {
          "internalType": "address",
          "name": "_investToken",
          "type": "address"
        },
        {
          "internalType": "address",
          "name": "_rewardToken",
          "type": "address"
        },
        {
          "internalType": "uint256",
          "name": "_startTime",
          "type": "uint256"
        },
        {
          "internalType": "uint256",
          "name": "_closeTime",
          "type": "uint256"
        },
        {
          "internalType": "uint256",
          "name": "_unlockTime",
          "type": "uint256"
        }
      ],
      "stateMutability": "nonpayable",
      "type": "constructor"
    },
    {
      "anonymous": false,
      "inputs": [
        {
          "indexed": false,
          "internalType": "address",
          "name": "lastInvestor",
          "type": "address"
        },
        {
          "indexed": false,
          "internalType": "uint256",
          "name": "lastInvestment",
          "type": "uint256"
        }
      ],
      "name": "CapReached",
      "type": "event"
    },
    {
      "anonymous": false,
      "inputs": [
        {
          "indexed": false,
          "internalType": "address",
          "name": "investor",
          "type": "address"
        },
        {
          "indexed": false,
          "internalType": "uint256",
          "name": "amount",
          "type": "uint256"
        },
        {
          "indexed": false,
          "internalType": "uint256",
          "name": "totalInvested",
          "type": "uint256"
        }
      ],
      "name": "Invested",
      "type": "event"
    },
    {
      "anonymous": false,
      "inputs": [
        {
          "indexed": true,
          "internalType": "address",
          "name": "previousOwner",
          "type": "address"
        },
        {
          "indexed": true,
          "internalType": "address",
          "name": "newOwner",
          "type": "address"
        }
      ],
      "name": "OwnershipTransferred",
      "type": "event"
    },
    {
      "anonymous": false,
      "inputs": [
        {
          "indexed": false,
          "internalType": "uint256",
          "name": "startTime",
          "type": "uint256"
        },
        {
          "indexed": false,
          "internalType": "uint256",
          "name": "closeTime",
          "type": "uint256"
        },
        {
          "indexed": false,
          "internalType": "uint256",
          "name": "unlockTime",
          "type": "uint256"
        }
      ],
      "name": "TimestampsUpdated",
      "type": "event"
    },
    {
      "inputs": [],
      "name": "closeTime",
      "outputs": [
        {
          "internalType": "uint256",
          "name": "",
          "type": "uint256"
        }
      ],
      "stateMutability": "view",
      "type": "function"
    },
    {
      "inputs": [
        {
          "internalType": "address",
          "name": "",
          "type": "address"
        }
      ],
      "name": "investedFrom",
      "outputs": [
        {
          "internalType": "uint256",
          "name": "",
          "type": "uint256"
        }
      ],
      "stateMutability": "view",
      "type": "function"
    },
    {
      "inputs": [],
      "name": "owner",
      "outputs": [
        {
          "internalType": "address",
          "name": "",
          "type": "address"
        }
      ],
      "stateMutability": "view",
      "type": "function"
    },
    {
      "inputs": [],
      "name": "renounceOwnership",
      "outputs": [],
      "stateMutability": "nonpayable",
      "type": "function"
    },
    {
      "inputs": [],
      "name": "startTime",
      "outputs": [
        {
          "internalType": "uint256",
          "name": "",
          "type": "uint256"
        }
      ],
      "stateMutability": "view",
      "type": "function"
    },
    {
      "inputs": [],
      "name": "totalInvested",
      "outputs": [
        {
          "internalType": "uint256",
          "name": "",
          "type": "uint256"
        }
      ],
      "stateMutability": "view",
      "type": "function"
    },
    {
      "inputs": [],
      "name": "totalRewarded",
      "outputs": [
        {
          "internalType": "uint256",
          "name": "",
          "type": "uint256"
        }
      ],
      "stateMutability": "view",
      "type": "function"
    },
    {
      "inputs": [
        {
          "internalType": "address",
          "name": "newOwner",
          "type": "address"
        }
      ],
      "name": "transferOwnership",
      "outputs": [],
      "stateMutability": "nonpayable",
      "type": "function"
    },
    {
      "inputs": [],
      "name": "unlockTime",
      "outputs": [
        {
          "internalType": "uint256",
          "name": "",
          "type": "uint256"
        }
      ],
      "stateMutability": "view",
      "type": "function"
    },
    {
      "inputs": [
        {
          "internalType": "address",
          "name": "",
          "type": "address"
        }
      ],
      "name": "whitelist",
      "outputs": [
        {
          "internalType": "uint256",
          "name": "",
          "type": "uint256"
        }
      ],
      "stateMutability": "view",
      "type": "function"
    },
    {
      "inputs": [
        {
          "internalType": "uint256",
          "name": "_startTime",
          "type": "uint256"
        },
        {
          "internalType": "uint256",
          "name": "_closeTime",
          "type": "uint256"
        },
        {
          "internalType": "uint256",
          "name": "_unlockTime",
          "type": "uint256"
        }
      ],
      "name": "updateTimestamps",
      "outputs": [],
      "stateMutability": "nonpayable",
      "type": "function"
    },
    {
      "inputs": [
        {
          "internalType": "address[]",
          "name": "investors",
          "type": "address[]"
        },
        {
          "internalType": "uint256[]",
          "name": "amounts",
          "type": "uint256[]"
        }
      ],
      "name": "addWhitelist",
      "outputs": [],
      "stateMutability": "nonpayable",
      "type": "function"
    },
    {
      "inputs": [
        {
          "internalType": "uint256",
          "name": "amount",
          "type": "uint256"
        }
      ],
      "name": "invest",
      "outputs": [],
      "stateMutability": "nonpayable",
      "type": "function"
    },
    {
      "inputs": [],
      "name": "claimReward",
      "outputs": [],
      "stateMutability": "nonpayable",
      "type": "function"
    },
    {
      "inputs": [],
      "name": "withdrawRaisedFunds",
      "outputs": [],
      "stateMutability": "nonpayable",
      "type": "function"
    },
    {
      "inputs": [],
      "name": "withdrawRewardsLeft",
      "outputs": [],
      "stateMutability": "nonpayable",
      "type": "function"
    }
  ],
  "bytecode": "0x60806040523480156200001157600080fd5b506040516200244e3803806200244e8339818101604052810190620000379190620001fa565b620000576200004b6200010060201b60201c565b6200010860201b60201c565b6001808190555084600560006101000a81548173ffffffffffffffffffffffffffffffffffffffff021916908373ffffffffffffffffffffffffffffffffffffffff16021790555083600660006101000a81548173ffffffffffffffffffffffffffffffffffffffff021916908373ffffffffffffffffffffffffffffffffffffffff1602179055508260028190555081600381905550806004819055505050505050620002ee565b600033905090565b60008060009054906101000a900473ffffffffffffffffffffffffffffffffffffffff169050816000806101000a81548173ffffffffffffffffffffffffffffffffffffffff021916908373ffffffffffffffffffffffffffffffffffffffff1602179055508173ffffffffffffffffffffffffffffffffffffffff168173ffffffffffffffffffffffffffffffffffffffff167f8be0079c531659141344cd1fd0a4f28419497f9722a3daafe3b4186f6b6457e060405160405180910390a35050565b600081519050620001dd81620002ba565b92915050565b600081519050620001f481620002d4565b92915050565b600080600080600060a086880312156200021357600080fd5b60006200022388828901620001cc565b95505060206200023688828901620001cc565b94505060406200024988828901620001e3565b93505060606200025c88828901620001e3565b92505060806200026f88828901620001e3565b9150509295509295909350565b6000620002898262000290565b9050919050565b600073ffffffffffffffffffffffffffffffffffffffff82169050919050565b6000819050919050565b620002c5816200027c565b8114620002d157600080fd5b50565b620002df81620002b0565b8114620002eb57600080fd5b50565b61215080620002fe6000396000f3fe608060405234801561001057600080fd5b50600436106101005760003560e01c80638da5cb5b11610097578063b27201ca11610066578063b27201ca1461023f578063b88a802f1461026f578063bb97041614610279578063f2fde38b1461029557610100565b80638da5cb5b146101c95780639b19251a146101e7578063ae34a44e14610217578063aed29d071461022157610100565b80635413713a116100d35780635413713a14610179578063627749e614610183578063715018a6146101a157806378e97925146101ab57610100565b8063050414bb14610105578063251c1aa3146101215780632afcf4801461013f5780635216aeec1461015b575b600080fd5b61011f600480360381019061011a91906115bd565b6102b1565b005b61012961045f565b6040516101369190611e4a565b60405180910390f35b61015960048036038101906101549190611652565b610465565b005b610163610831565b6040516101709190611e4a565b60405180910390f35b610181610837565b005b61018b610a58565b6040516101989190611e4a565b60405180910390f35b6101a9610a5e565b005b6101b3610ae6565b6040516101c09190611e4a565b60405180910390f35b6101d1610aec565b6040516101de9190611bcf565b60405180910390f35b61020160048036038101906101fc9190611594565b610b15565b60405161020e9190611e4a565b60405180910390f35b61021f610b2d565b005b610229610d4e565b6040516102369190611e4a565b60405180910390f35b61025960048036038101906102549190611594565b610d54565b6040516102669190611e4a565b60405180910390f35b610277610d6c565b005b610293600480360381019061028e91906116a4565b61114d565b005b6102af60048036038101906102aa9190611594565b611224565b005b6102b961131c565b73ffffffffffffffffffffffffffffffffffffffff166102d7610aec565b73ffffffffffffffffffffffffffffffffffffffff161461032d576040517f08c379a000000000000000000000000000000000000000000000000000000000815260040161032490611d6a565b60405180910390fd5b8051825114610371576040517f08c379a000000000000000000000000000000000000000000000000000000000815260040161036890611dea565b60405180910390fd5b60005b825181101561045a5760008382815181106103b8577f4e487b7100000000000000000000000000000000000000000000000000000000600052603260045260246000fd5b602002602001015190508282815181106103fb577f4e487b7100000000000000000000000000000000000000000000000000000000600052603260045260246000fd5b6020026020010151600960008373ffffffffffffffffffffffffffffffffffffffff1673ffffffffffffffffffffffffffffffffffffffff168152602001908152602001600020819055505080806104529061202e565b915050610374565b505050565b60045481565b6002544210156104aa576040517f08c379a00000000000000000000000000000000000000000000000000000000081526004016104a190611c4a565b60405180910390fd5b6003544211156104ef576040517f08c379a00000000000000000000000000000000000000000000000000000000081526004016104e690611cea565b60405180910390fd5b6000600960003373ffffffffffffffffffffffffffffffffffffffff1673ffffffffffffffffffffffffffffffffffffffff1681526020019081526020016000205411610571576040517f08c379a000000000000000000000000000000000000000000000000000000000815260040161056890611d0a565b60405180910390fd5b600081116105b4576040517f08c379a00000000000000000000000000000000000000000000000000000000081526004016105ab90611caa565b60405180910390fd5b600960003373ffffffffffffffffffffffffffffffffffffffff1673ffffffffffffffffffffffffffffffffffffffff168152602001908152602001600020548114610635576040517f08c379a000000000000000000000000000000000000000000000000000000000815260040161062c90611d8a565b60405180910390fd5b6000600a60003373ffffffffffffffffffffffffffffffffffffffff1673ffffffffffffffffffffffffffffffffffffffff16815260200190815260200160002054146106b7576040517f08c379a00000000000000000000000000000000000000000000000000000000081526004016106ae90611e0a565b60405180910390fd5b68068155a43676e000006106d68260075461132490919063ffffffff16565b1115610717576040517f08c379a000000000000000000000000000000000000000000000000000000000815260040161070e90611d2a565b60405180910390fd5b80600a60003373ffffffffffffffffffffffffffffffffffffffff1673ffffffffffffffffffffffffffffffffffffffff168152602001908152602001600020819055506107708160075461132490919063ffffffff16565b60078190555061079f61078e6103e88361133a90919063ffffffff16565b60085461132490919063ffffffff16565b60088190555068068155a43676e00000600754106107f1577f195de8a1ebf5a1244af169b7e0bd0f735307a2626a73abce88f9b488628c6c2433826040516107e8929190611bea565b60405180910390a15b7f9e9d071824fd57d062ca63fd8b786d8da48a6807eebbcb2d83f9e8d21398e28c338260075460405161082693929190611c13565b60405180910390a150565b60075481565b61083f61131c565b73ffffffffffffffffffffffffffffffffffffffff1661085d610aec565b73ffffffffffffffffffffffffffffffffffffffff16146108b3576040517f08c379a00000000000000000000000000000000000000000000000000000000081526004016108aa90611d6a565b60405180910390fd5b6000600560009054906101000a900473ffffffffffffffffffffffffffffffffffffffff1673ffffffffffffffffffffffffffffffffffffffff166370a08231306040518263ffffffff1660e01b81526004016109109190611bcf565b60206040518083038186803b15801561092857600080fd5b505afa15801561093c573d6000803e3d6000fd5b505050506040513d601f19601f82011682018060405250810190610960919061167b565b9050600081116109a5576040517f08c379a000000000000000000000000000000000000000000000000000000000815260040161099c90611c8a565b60405180910390fd5b600560009054906101000a900473ffffffffffffffffffffffffffffffffffffffff1673ffffffffffffffffffffffffffffffffffffffff1663a9059cbb33836040518363ffffffff1660e01b8152600401610a02929190611bea565b602060405180830381600087803b158015610a1c57600080fd5b505af1158015610a30573d6000803e3d6000fd5b505050506040513d601f19601f82011682018060405250810190610a549190611629565b5050565b60035481565b610a6661131c565b73ffffffffffffffffffffffffffffffffffffffff16610a84610aec565b73ffffffffffffffffffffffffffffffffffffffff1614610ada576040517f08c379a0000000000000000000000000000000000000000000000000000000008152600401610ad190611d6a565b60405180910390fd5b610ae46000611350565b565b60025481565b60008060009054906101000a900473ffffffffffffffffffffffffffffffffffffffff16905090565b60096020528060005260406000206000915090505481565b610b3561131c565b73ffffffffffffffffffffffffffffffffffffffff16610b53610aec565b73ffffffffffffffffffffffffffffffffffffffff1614610ba9576040517f08c379a0000000000000000000000000000000000000000000000000000000008152600401610ba090611d6a565b60405180910390fd5b6000600660009054906101000a900473ffffffffffffffffffffffffffffffffffffffff1673ffffffffffffffffffffffffffffffffffffffff166370a08231306040518263ffffffff1660e01b8152600401610c069190611bcf565b60206040518083038186803b158015610c1e57600080fd5b505afa158015610c32573d6000803e3d6000fd5b505050506040513d601f19601f82011682018060405250810190610c56919061167b565b905060008111610c9b576040517f08c379a0000000000000000000000000000000000000000000000000000000008152600401610c9290611daa565b60405180910390fd5b600660009054906101000a900473ffffffffffffffffffffffffffffffffffffffff1673ffffffffffffffffffffffffffffffffffffffff1663a9059cbb33836040518363ffffffff1660e01b8152600401610cf8929190611bea565b602060405180830381600087803b158015610d1257600080fd5b505af1158015610d26573d6000803e3d6000fd5b505050506040513d601f19601f82011682018060405250810190610d4a9190611629565b5050565b60085481565b600a6020528060005260406000206000915090505481565b6000600960003373ffffffffffffffffffffffffffffffffffffffff1673ffffffffffffffffffffffffffffffffffffffff1681526020019081526020016000205411610dee576040517f08c379a0000000000000000000000000000000000000000000000000000000008152600401610de590611d0a565b60405180910390fd5b600454421015610e33576040517f08c379a0000000000000000000000000000000000000000000000000000000008152600401610e2a90611dca565b60405180910390fd5b60026001541415610e79576040517f08c379a0000000000000000000000000000000000000000000000000000000008152600401610e7090611e2a565b60405180910390fd5b60026001819055506000600a60003373ffffffffffffffffffffffffffffffffffffffff1673ffffffffffffffffffffffffffffffffffffffff1681526020019081526020016000205411610f03576040517f08c379a0000000000000000000000000000000000000000000000000000000008152600401610efa90611cca565b60405180910390fd5b6000610f596103e8600a60003373ffffffffffffffffffffffffffffffffffffffff1673ffffffffffffffffffffffffffffffffffffffff1681526020019081526020016000205461133a90919063ffffffff16565b90506000600660009054906101000a900473ffffffffffffffffffffffffffffffffffffffff1673ffffffffffffffffffffffffffffffffffffffff166370a08231306040518263ffffffff1660e01b8152600401610fb89190611bcf565b60206040518083038186803b158015610fd057600080fd5b505afa158015610fe4573d6000803e3d6000fd5b505050506040513d601f19601f82011682018060405250810190611008919061167b565b90508181101561104d576040517f08c379a000000000000000000000000000000000000000000000000000000000815260040161104490611d4a565b60405180910390fd5b6000600a60003373ffffffffffffffffffffffffffffffffffffffff1673ffffffffffffffffffffffffffffffffffffffff16815260200190815260200160002081905550600660009054906101000a900473ffffffffffffffffffffffffffffffffffffffff1673ffffffffffffffffffffffffffffffffffffffff1663a9059cbb33846040518363ffffffff1660e01b81526004016110ef929190611bea565b602060405180830381600087803b15801561110957600080fd5b505af115801561111d573d6000803e3d6000fd5b505050506040513d601f19601f820116820180604052508101906111419190611629565b50505060018081905550565b61115561131c565b73ffffffffffffffffffffffffffffffffffffffff16611173610aec565b73ffffffffffffffffffffffffffffffffffffffff16146111c9576040517f08c379a00000000000000000000000000000000000000000000000000000000081526004016111c090611d6a565b60405180910390fd5b8260028190555081600381905550806004819055507f749febcfd312132a2e66a63a2625911869e42144460829501f24d75f3e645bdd60025460035460045460405161121793929190611e65565b60405180910390a1505050565b61122c61131c565b73ffffffffffffffffffffffffffffffffffffffff1661124a610aec565b73ffffffffffffffffffffffffffffffffffffffff16146112a0576040517f08c379a000000000000000000000000000000000000000000000000000000000815260040161129790611d6a565b60405180910390fd5b600073ffffffffffffffffffffffffffffffffffffffff168173ffffffffffffffffffffffffffffffffffffffff161415611310576040517f08c379a000000000000000000000000000000000000000000000000000000000815260040161130790611c6a565b60405180910390fd5b61131981611350565b50565b600033905090565b600081836113329190611f36565b905092915050565b600081836113489190611f8c565b905092915050565b60008060009054906101000a900473ffffffffffffffffffffffffffffffffffffffff169050816000806101000a81548173ffffffffffffffffffffffffffffffffffffffff021916908373ffffffffffffffffffffffffffffffffffffffff1602179055508173ffffffffffffffffffffffffffffffffffffffff168173ffffffffffffffffffffffffffffffffffffffff167f8be0079c531659141344cd1fd0a4f28419497f9722a3daafe3b4186f6b6457e060405160405180910390a35050565b600061142761142284611ecd565b611e9c565b9050808382526020820190508285602086028201111561144657600080fd5b60005b85811015611476578161145c88826114ec565b845260208401935060208301925050600181019050611449565b5050509392505050565b600061149361148e84611ef9565b611e9c565b905080838252602082019050828560208602820111156114b257600080fd5b60005b858110156114e257816114c8888261156a565b8452602084019350602083019250506001810190506114b5565b5050509392505050565b6000813590506114fb816120d5565b92915050565b600082601f83011261151257600080fd5b8135611522848260208601611414565b91505092915050565b600082601f83011261153c57600080fd5b813561154c848260208601611480565b91505092915050565b600081519050611564816120ec565b92915050565b60008135905061157981612103565b92915050565b60008151905061158e81612103565b92915050565b6000602082840312156115a657600080fd5b60006115b4848285016114ec565b91505092915050565b600080604083850312156115d057600080fd5b600083013567ffffffffffffffff8111156115ea57600080fd5b6115f685828601611501565b925050602083013567ffffffffffffffff81111561161357600080fd5b61161f8582860161152b565b9150509250929050565b60006020828403121561163b57600080fd5b600061164984828501611555565b91505092915050565b60006020828403121561166457600080fd5b60006116728482850161156a565b91505092915050565b60006020828403121561168d57600080fd5b600061169b8482850161157f565b91505092915050565b6000806000606084860312156116b957600080fd5b60006116c78682870161156a565b93505060206116d88682870161156a565b92505060406116e98682870161156a565b9150509250925092565b6116fc81611fe6565b82525050565b600061170f601583611f25565b91507f53616c6573206e6f7420737461727465642079657400000000000000000000006000830152602082019050919050565b600061174f602683611f25565b91507f4f776e61626c653a206e6577206f776e657220697320746865207a65726f206160008301527f64647265737300000000000000000000000000000000000000000000000000006020830152604082019050919050565b60006117b5601083611f25565b91507f5a65726f2066756e6420726169736564000000000000000000000000000000006000830152602082019050919050565b60006117f5600f83611f25565b91507f5a65726f20696e766573746d656e7400000000000000000000000000000000006000830152602082019050919050565b6000611835601083611f25565b91507f6e6f6e2d636f6e747269627574696f6e000000000000000000000000000000006000830152602082019050919050565b6000611875601783611f25565b91507f53616c657320697320616c726561647920636c6f7365640000000000000000006000830152602082019050919050565b60006118b5602183611f25565b91507f596f7520617265206e6f742077686974656c697374656420746f20696e76657360008301527f74000000000000000000000000000000000000000000000000000000000000006020830152604082019050919050565b600061191b602683611f25565b91507f5665676149444f3a2043617020666f722063757272656e7420726f756e64207260008301527f65616368656400000000000000000000000000000000000000000000000000006020830152604082019050919050565b6000611981600d83611f25565b91507f4c61636b206f662066756e6473000000000000000000000000000000000000006000830152602082019050919050565b60006119c1602083611f25565b91507f4f776e61626c653a2063616c6c6572206973206e6f7420746865206f776e65726000830152602082019050919050565b6000611a01603283611f25565b91507f496e7665737420616d6f756e74206973206e6f7420657175616c20746f20746860008301527f652077686974656c69737420616d6f756e7400000000000000000000000000006020830152604082019050919050565b6000611a67600e83611f25565b91507f5a65726f2066756e64206c6566740000000000000000000000000000000000006000830152602082019050919050565b6000611aa7601c83611f25565b91507f5265776172647320617265206e6f7420756e6c6f636b656420796574000000006000830152602082019050919050565b6000611ae7602e83611f25565b91507f41646472657373657320616e6420616d6f756e7473206172726179206c656e6760008301527f746873206d757374206d617463680000000000000000000000000000000000006020830152604082019050919050565b6000611b4d601483611f25565b91507f596f7520616c726561647920696e7665737465640000000000000000000000006000830152602082019050919050565b6000611b8d601f83611f25565b91507f5265656e7472616e637947756172643a207265656e7472616e742063616c6c006000830152602082019050919050565b611bc981612024565b82525050565b6000602082019050611be460008301846116f3565b92915050565b6000604082019050611bff60008301856116f3565b611c0c6020830184611bc0565b9392505050565b6000606082019050611c2860008301866116f3565b611c356020830185611bc0565b611c426040830184611bc0565b949350505050565b60006020820190508181036000830152611c6381611702565b9050919050565b60006020820190508181036000830152611c8381611742565b9050919050565b60006020820190508181036000830152611ca3816117a8565b9050919050565b60006020820190508181036000830152611cc3816117e8565b9050919050565b60006020820190508181036000830152611ce381611828565b9050919050565b60006020820190508181036000830152611d0381611868565b9050919050565b60006020820190508181036000830152611d23816118a8565b9050919050565b60006020820190508181036000830152611d438161190e565b9050919050565b60006020820190508181036000830152611d6381611974565b9050919050565b60006020820190508181036000830152611d83816119b4565b9050919050565b60006020820190508181036000830152611da3816119f4565b9050919050565b60006020820190508181036000830152611dc381611a5a565b9050919050565b60006020820190508181036000830152611de381611a9a565b9050919050565b60006020820190508181036000830152611e0381611ada565b9050919050565b60006020820190508181036000830152611e2381611b40565b9050919050565b60006020820190508181036000830152611e4381611b80565b9050919050565b6000602082019050611e5f6000830184611bc0565b92915050565b6000606082019050611e7a6000830186611bc0565b611e876020830185611bc0565b611e946040830184611bc0565b949350505050565b6000604051905081810181811067ffffffffffffffff82111715611ec357611ec26120a6565b5b8060405250919050565b600067ffffffffffffffff821115611ee857611ee76120a6565b5b602082029050602081019050919050565b600067ffffffffffffffff821115611f1457611f136120a6565b5b602082029050602081019050919050565b600082825260208201905092915050565b6000611f4182612024565b9150611f4c83612024565b9250827fffffffffffffffffffffffffffffffffffffffffffffffffffffffffffffffff03821115611f8157611f80612077565b5b828201905092915050565b6000611f9782612024565b9150611fa283612024565b9250817fffffffffffffffffffffffffffffffffffffffffffffffffffffffffffffffff0483118215151615611fdb57611fda612077565b5b828202905092915050565b6000611ff182612004565b9050919050565b60008115159050919050565b600073ffffffffffffffffffffffffffffffffffffffff82169050919050565b6000819050919050565b600061203982612024565b91507fffffffffffffffffffffffffffffffffffffffffffffffffffffffffffffffff82141561206c5761206b612077565b5b600182019050919050565b7f4e487b7100000000000000000000000000000000000000000000000000000000600052601160045260246000fd5b7f4e487b7100000000000000000000000000000000000000000000000000000000600052604160045260246000fd5b6120de81611fe6565b81146120e957600080fd5b50565b6120f581611ff8565b811461210057600080fd5b50565b61210c81612024565b811461211757600080fd5b5056fea26469706673582212205b7dc060e67c00ac5beb2aa9ddda049728e25e0da1503a081222af33b6b642f864736f6c63430008000033",
  "immutableReferences": {},
  "source": "// SPDX-License-Identifier: MIT\r\n\r\npragma solidity ^0.8.0;\r\n\r\nimport \"@openzeppelin/contracts/access/Ownable.sol\";\r\nimport \"@openzeppelin/contracts/security/ReentrancyGuard.sol\";\r\nimport \"@openzeppelin/contracts/utils/math/SafeMath.sol\";\r\nimport \"@openzeppelin/contracts/token/ERC20/IERC20.sol\";\r\n\r\ncontract TokenSales is Ownable, ReentrancyGuard {\r\n  using SafeMath for uint256;\r\n  \r\n\t/* The start, close, and unlock timestamps of TokenSales */\r\n\tuint256 public startTime;\r\n\tuint256 public closeTime;\r\n\tuint256 public unlockTime;\r\n\r\n\t/* Fixed price\r\n   * price = reward tokens per invested token (e.g. 1 USDT = 1000 VEGA)\r\n   */\r\n\tuint256 constant price = 1000;\r\n\r\n\t/* Addresses of the token contracts */\r\n\tIERC20 private investToken;\r\n  IERC20 private rewardToken;\r\n  \r\n\tuint256 constant cap = 120 * (10**18);\r\n\r\n\t/* how much has been raised by crowdale (in InvestToken) */\r\n\tuint256 public totalInvested;\r\n\t/* how much has been sold by crowdale (in RewardToken) */\r\n\tuint256 public totalRewarded;\r\n\r\n  /* Whitelisted investors and their amounts */\r\n  mapping(address => uint256) public whitelist;\r\n\t/* Balances (in InvestToken) of all investors */\r\n\tmapping(address => uint256) public investedFrom;\r\n  \r\n\t/* Notifying transfers and the success of the TokenSales*/\r\n\tevent CapReached(address lastInvestor, uint256 lastInvestment);\r\n\tevent Invested(address investor, uint256 amount, uint256 totalInvested);\r\n\tevent TimestampsUpdated(uint256 startTime, uint256 closeTime, uint256 unlockTime);\r\n\r\n  modifier salesInProgress() {\r\n    require(block.timestamp >= startTime, \"Sales not started yet\");\r\n    require(block.timestamp <= closeTime, \"Sales is already closed\");\r\n    _;\r\n  }\r\n\r\n  modifier unlocked() {\r\n    require(block.timestamp >= unlockTime, \"Rewards are not unlocked yet\");\r\n    _;\r\n  }\r\n\r\n  modifier whitelisted() {\r\n    require(whitelist[msg.sender] > 0, \"You are not whitelisted to invest\");\r\n    _;\r\n  }\r\n\r\n  /*  initialization, set the token address */\r\n  constructor(address _investToken, address _rewardToken, uint256 _startTime, uint256 _closeTime, uint256 _unlockTime) {\r\n    investToken = IERC20(_investToken);\r\n    rewardToken = IERC20(_rewardToken);\r\n    startTime = _startTime;\r\n    closeTime = _closeTime;\r\n    unlockTime = _unlockTime;\r\n  }\r\n\r\n\tfunction updateTimestamps(uint256 _startTime, uint256 _closeTime, uint256 _unlockTime) external onlyOwner {\r\n    startTime = _startTime;\r\n    closeTime = _closeTime;\r\n    unlockTime = _unlockTime;\r\n    emit TimestampsUpdated(startTime, closeTime, unlockTime);\r\n\t}\r\n\r\n  function addWhitelist(address[] memory investors, uint256[] memory amounts) external onlyOwner {\r\n\r\n    require(investors.length == amounts.length, \"Addresses and amounts array lengths must match\");\r\n\r\n    for (uint256 i = 0; i < investors.length; i++) {\r\n        address addr = investors[i];\r\n        whitelist[addr] = amounts[i];\r\n    }\r\n  }\r\n  \r\n  /* Make an investment\r\n  *  only callable if the TokenSales started and hasn't been closed already and the maxGoal wasn't reached yet.\r\n  *  the current token price is looked up and the corresponding number of tokens is transfered to the receiver.\r\n  *  the sent value is directly forwarded to a safe multisig wallet.\r\n  *  this method allows to purchase tokens in behalf of another address.*/\r\n  function invest(uint256 amount) external salesInProgress whitelisted {\r\n    \r\n    require(amount > 0, \"Zero investment\");\r\n    require(amount == whitelist[msg.sender], \"Invest amount is not equal to the whitelist amount\");\r\n    require(investedFrom[msg.sender] == 0, \"You already invested\");\r\n    require(totalInvested.add(amount) <= cap, \"VegaIDO: Cap for current round reached\");\r\n\r\n    investedFrom[msg.sender] = amount;\r\n\r\n    totalInvested = totalInvested.add(amount);\r\n    totalRewarded = totalRewarded.add(amount.mul(price));\r\n\r\n    if (totalInvested >= cap) {\r\n      // Trigger an event with last investor\r\n      emit CapReached(msg.sender, amount);\r\n    }\r\n    \r\n    emit Invested(msg.sender, amount, totalInvested);\r\n  }\r\n\r\n\tfunction claimReward() external whitelisted unlocked nonReentrant {\r\n\r\n\t\trequire(investedFrom[msg.sender] > 0, \"non-contribution\");\r\n\r\n\t\tuint256 amount = investedFrom[msg.sender].mul(price);\r\n\t\tuint256 balance = rewardToken.balanceOf(address(this));\r\n\t\trequire(balance >= amount, \"Lack of funds\");\r\n\r\n\t\tinvestedFrom[msg.sender] = 0;\r\n\t\trewardToken.transfer(msg.sender, amount);\r\n\t}\r\n\r\n\tfunction withdrawRaisedFunds() external onlyOwner {\r\n\t\tuint256 balance = investToken.balanceOf(address(this));\r\n    // balance must be equal to totalInvested\r\n\t\trequire(balance > 0, \"Zero fund raised\");\r\n\t\tinvestToken.transfer(msg.sender, balance);\r\n\t}\r\n\r\n\tfunction withdrawRewardsLeft() external onlyOwner {\r\n\t\tuint256 balance = rewardToken.balanceOf(address(this));\r\n\t\trequire(balance > 0, \"Zero fund left\");\r\n\t\trewardToken.transfer(msg.sender, balance);\r\n\t}\r\n}",
  "sourcePath": "E:\\work\\blockchain\\vegaswap\\work\\tokensales-contract\\contracts\\TokenSales.sol",
  "compiler": {
    "name": "solc",
    "version": "0.8.0+commit.c7dfd78e.Emscripten.clang"
  },
  "schemaVersion": "3.4.2",
  "updatedAt": "2021-08-07T05:14:25.966Z",
  "devdoc": {
    "kind": "dev",
    "methods": {
      "owner()": {
        "details": "Returns the address of the current owner."
      },
      "renounceOwnership()": {
        "details": "Leaves the contract without owner. It will not be possible to call `onlyOwner` functions anymore. Can only be called by the current owner. NOTE: Renouncing ownership will leave the contract without an owner, thereby removing any functionality that is only available to the owner."
      },
      "transferOwnership(address)": {
        "details": "Transfers ownership of the contract to a new account (`newOwner`). Can only be called by the current owner."
      }
    },
    "version": 1
  },
  "userdoc": {
    "kind": "user",
    "methods": {},
    "version": 1
  }
}